:03000000020008F3
:0D00610090000074A3F09000017471F09005
:0C006E0000027479F09000037401F0901F
:0C007A00000474FCF090000574F2F0909B
:0C00860000067493F090000774C7F0901F
:0C0092000008741CF09000097469F090E4
:0C009E00000A742DF090000B7467F090C5
:0C00AA00000C7438F090000D742BF090E6
:0C00B600000E747CF090000F741AF090A3
:0C00C20000107440F09000117488F09061
:0C00CE00001274BAF0900013749BF090C4
:0C00DA0000147410F09000157453F090A6
:0C00E60000167465F090001774EDF090A7
:0C00F200001874FEF09000197439F090B2
:0C00FE00001A74B4F090001B7477F090AE
:0C010A00001C743BF090001D74C8F090C5
:0C011600001E749BF090001F74B2F0906B
:0C012200002074E4F090002174B1F09013
:0C012E00002274A3F090002374C9F0902C
:0C013A00002474CDF090002574C8F090F3
:0C014600002674F2F09000277469F0901D
:0C01520000287401F09000297491F090D6
:0C015E00002A7487F090002B7467F0906A
:0C016A00002C74ACF090002D746EF0902E
:0C017600002E7456F090002F74F1F090F1
:0C01820000307460F090003174BFF09009
:0C018E000032741EF0900033740FF090EB
:0C019A0000347453F090003574A8F0900D
:0C01A600003674AFF09000377440F09009
:0C01B200003874DBF09000397476F09097
:0C01BE00003A74B2F090003B74EAF0903C
:0C01CA00003C7490F090003D74DDF0905B
:0C01D600003E74FFF090003F7440F09079
:0C01E2000040740CF090004174D2F090CA
:0C01EE000042744DF090004374DCF0906F
:0C01FA000044745EF090004574B3F09077
:0C020600004674E7F090004774FAF09096
:0C021200004874B4F09000497453F09060
:0C021E00004A745EF090004B7475F09084
:0C022A00004C740BF090004D7491F090AB
:0C023600004E7492F090004F7414F09091
:0C0242000050747EF090005174D8F090D1
:0C024E00005274B8F090005374A7F090B8
:0C025A0000547405F09000557495F0906D
:0C026600005674D0F09000577455F090D2
:0C02720000587497F09000597430F09020
:0C027E00005A7478F090005B7441F0901E
:0C028A00005C7481F090005D74EFF09057
:0C029600005E74C6F090005F7464F0908D
:0C02A2000060749FF0900061744AF090BE
:0C02AE000062749CF0900063744AF090B1
:0C02BA000064743AF0900065740BF09042
:0C02C600006674CAF090006774D8F090D5
:0C02D2000068749CF0900069741AF090B1
:0C02DE00006A7464F090006B74A7F0904C
:0C02EA00006C74A9F090006D746EF09030
:0C02F600006E74C8F090006F740AF09065
:0C030200007074E5F090007174CEF09073
:0C030E00007274E2F0900073743BF090F9
:0C031A0000747473F0900075748AF09009
:0C032600007674EFF090007774F0F09017
:0C033200007874E4F090007974A6F0905C
:0C033E00007A7440F090007B7426F09070
:0C034A00007C74F3F090007D74D9F090FA
:0C035600007E7450F090007F741FF09047
:0C036200008074BDF090008174AAF0903F
:0C036E0000827418F0900083744CF09032
:0C037A00008474CDF0900085745CF0905D
:0C03860000867495F09000877435F090AC
:0C0392000088745BF090008974A2F09069
:0C039E00008A749DF090008B74C0F090F9
:0C03AA00008C74EBF090008D74E2F09079
:0C03B600008E748AF090008F74C6F090E6
:0C03C200009074BFF090009174DFF09088
:0C03CE00009274A1F09000937488F090ED
:0C03DA000094741BF0900095748CF0905F
:0C03E60000967458F090009774E3F090BB
:0C03F200009874B0F090009974D8F0905E
:0C03FE00009A74F8F090009B74C6F09018
:0C040A00009C74B6F090009D7401F0900E
:0C041600009E7496F090009F74E2F0903D
:0C04220000A074E0F09000A17452F09073
:0C042E0000A27401F09000A3740BF09089
:0C043A0000A4743AF09000A574FFF0904C
:0C04460000A67465F09000A77448F090C8
:0C04520000A874E0F09000A97467F0901E
:0C045E0000AA74CDF09000AB749EF090EA
:0C046A0000AC741EF09000AD746AF090BD
:0C04760000AE74A4F09000AF74FCF09095
:0C04820000B07404F09000B174C5F0905C
:0C048E0000B2747BF09000B3741CF0907E
:0C049A0000B474F0F09000B5742BF090EA
:0C04A60000B674D1F09000B7744EF090D6
:0C04B20000B87462F09000B974FBF09088
:0C04BE0000BA7436F09000BB7468F09037
:0C04CA0000BC74B9F09000BD7470F0909C
:0C04D60000BE74C8F09000BF7498F09055
:0C04E20000C0740CF09000C1748AF0900F
:0C04EE0000C27465F09000C3743CF090F4
:0C04FA0000C474D1F09000C57415F0909F
:0C05060000C6742BF09000C77413F09036
:0C05120000C874CAF09000C9745AF09040
:0C051E0000CA74B7F09000CB74BAF090E3
:0C052A0000CC74FCF09000CD7415F09033
:0C05360000CE7437F09000CF7411F090EC
:0C05420000D0746CF09000D174F3F090C5
:0C054E0000D27493F09000D37485F090FC
:0C055A0000D4749BF09000D5741EF0904B
:0C05660000D674E8F09000D77428F090E4
:0C05720000D87444F09000D9744BF09055
:0C057E0000DA74FBF09000DB746AF0906F
:0C058A0000DC74FDF09000DD74ECF090DB
:0C05960000DE74C9F09000DF74CBF09020
:0C05A20000E074C9F09000E17407F090D4
:0C05AE0000E27428F09000E3742BF09041
:0C05BA0000E47496F09000E574E0F0900E
:0C05C60000E674F9F09000E774A5F090D6
:0C05D20000E8748CF09000E97435F090A3
:0C05DE0000EA7462F09000EB74CCF09026
:0C05EA0000EC74ABF09000ED74B9F090E0
:0C05F60000EE74F3F09000EF74A2F0909F
:0C06020000F074A9F09000F1744DF0902D
:0C060E0000F27424F09000F37407F090E8
:0C061A0000F47416F09000F57487F09066
:0C06260000F674F4F09000F77431F090CE
:0C06320000F874BBF09000F974BCF0906C
:0C063E0000FA746DF09000FB740AF0905C
:0C064A0000FC7488F09000FD74E5F09056
:0C06560000FE7447F09000FF747DF090EF
:0C0662000100740DF090010174D5F090BF
:0C066E000102740FF09001037426F0905C
:0C067A000104748FF09001057495F0905D
:0C068600010674ADF09001077459F0906B
:0C06920001087424F090010974A0F0909D
:0C069E00010A74DAF090010B748FF090E8
:0C06AA00010C74AEF090010D7427F0906C
:0C06B600010E749FF090010F74D4F090BE
:0C06C2000110747AF090011174E7F090C0
:0C06CE000112747EF090011374BFF090D4
:0C06DA00011474DFF0900115742DF090F5
:0C06E60001167412F090011774DAF09005
:0C06F20001187443F09001197414F0908A
:0C06FE00011A740FF090011B7420F090A2
:0C070A00011C74FAF090011D7490F09036
:0C071600011E7446F090011F74D5F09095
:0C07220001207439F090012174F1F09076
:0C072E00012274AAF09001237490F09056
:0C073A0001247402F090012574E4F0909A
:0C074600012674DCF090012774A3F090F1
:0C0752000128749CF090012974A4F09020
:0C075E00012A74F2F090012B74FFF0905F
:0C076A00012C7430F090012D74C1F0904F
:0C077600012E7414F090012F7422F090FA
:0C0782000130747EF09001317411F09091
:0C078E00013274E3F09001337477F090B6
:0B079A000134E4F0900135741AF09077
:0C07A500013674ADF09001377450F090F4
:0C07B100013874E1F0900139747BF09085
:0C07BD00013A7491F090013B744AF090F6
:0C07C900013C7492F090013D7408F09027
:0C07D500013E7465F090013F7420F0902C
:0C07E10001407475F09001417468F090C4
:0C07ED0001427474F090014374B3F0906A
:0C07F90001447465F090014574B0F0906C
:0C0805000146740CF090014774C6F0909E
:0C0811000148748BF090014974C9F0900C
:0C081D00014A7410F090014B74EFF09051
:0C082900014C74C4F090014D744EF0902E
:0C083500014E7445F090014F74ADF0903E
:0C084100015074FAF090015174D2F09054
:0C084D000152744FF09001537406F090BB
:0C085900015474ECF09001557429F090EB
:0C0865000156745CF090015774F3F090A1
:0C087100015874AAF09001597497F0909F
:0C087D00015A7482F090015B7470F090DE
:0C088900015C74B8F090015D7444F090C4
:0C089500015E7406F090015F7486F09024
:0C08A100016074E0F09001617467F09059
:0C08AD00016274FCF09001637470F09024
:0C08B90001647479F090016574A4F09063
:0C08C500016674F0F090016774B3F090CD
:0C08D1000168740BF09001697448F0900D
:0C08DD00016A74CDF090016B74F0F09093
:0C08E900016C746CF090016D746FF09065
:0C08F500016E740BF090016F748BF0909A
:0C09010001707425F09001717467F09093
:0C090D0001727446F0900173748FF0903A
:0C091900017474ECF090017574A4F0906F
:0C092500017674C1F090017774E3F0904B
:0C0931000178746AF09001797447F0902E
:0C093D00017A740DF090017B74EBF090D7
:0C094900017C74A3F090017D7481F0909B
:0C095500017E74B5F090017F74BAF09040
:0C0961000180743BF090018174FEF09066
:0C096D0001827413F09001837449F09033
:0C09790001847455F0900185741CF0900E
:0C09850001867495F09001877410F090CA
:0C09910001887474F09001897460F0908B
:0C099D00018A74FAF090018B74E6F0906F
:0C09A900018C7425F090018D744BF090CF
:0C09B500018E7497F090018F748AF0900E
:0C09C10001907434F09001917492F09059
:0C09CD0001927437F09001937472F09066
:0C09D900019474AEF0900195741BF09036
:0C09E5000196747DF090019774CEF090A4
:0C09F1000198749DF0900199745FF090E3
:0C09FD00019A74ECF090019B746CF09077
:0C0A0900019C7413F090019D740EF0909D
:0C0A1500019E74FEF090019F74C7F090E9
:0C0A210001A074B3F09001A174D4F09017
:0C0A2D0001A274B4F09001A37403F090D7
:0C0A390001A4744CF09001A5748BF090A7
:0C0A450001A674AEF09001A7740DF090B3
:0C0A510001A87486F09001A974DCF090FC
:0C0A5D0001AA7465F09001AB7406F090E3
:0C0A690001AC74C4F09001AD74BBF090BF
:0C0A750001AE745DF09001AF7415F090BC
:0C0A810001B074BEF09001B17476F090EA
:0C0A8D0001B27426F09001B37408F090E0
:0C0A990001B47457F09001B57460F09047
:0C0AA50001B674D8F09001B77483F09093
:0C0AB10001B87476F09001B97438F09030
:0C0ABD0001BA741CF09001BB74DEF090D4
:0C0AC90001BC743BF09001BD7416F0906D
:0C0AD50001BE7494F09001BF742DF090ED
:0C0AE10001C074CCF09001C174A5F0902D
:0C0AED0001C2748BF09001C37445F090BE
:0C0AF90001C4742DF09001C57432F0901F
:0C0B050001C67487F09001C77412F090D4
:0C0B110001C87418F09001C97499F090AC
:0C0B1D0001CA74DEF09001CB744CF09023
:0C0B290001CC742BF09001CD7416F090FC
:0C0B350001CE7424F09001CF74FAF0900F
:0C0B410001D0742AF09001D17469F0908A
:0C0B4D0001D27404F09001D3749CF0906D
:0C0B590001D474E8F09001D574F3F09022
:0C0B650001D6742BF09001D77408F090BA
:0C0B710001D87479F09001D974A8F090BC
:0C0B7D0001DA74C6F09001DB74EDF0901A
:0C0B890001DC74B8F09001DD74D8F0902D
:0C0B950001DE741AF09001DF7445F0904E
:0C0BA10001E07457F09001E1740CF0903A
:0C0BAD0001E27440F09001E374D7F09076
:0C0BB90001E47437F09001E574A6F090A0
:0C0BC50001E67419F09001E774CDF09087
:0C0BD10001E8745AF09001E97456F090AD
:0C0BDD0001EA74DEF09001EB74F6F09079
:0C0BE90001EC7429F09001ED74DBF09039
:0C0BF50001EE7415F09001EF745AF090BE
:0C0C010001F0740BF09001F17448F090C9
:0C0C0D0001F27443F09001F37436F09093
:0C0C190001F474EDF09001F574FDF09012
:0C0C250001F674BDF09001F77490F0909F
:0C0C310001F87435F09001F97481F09026
:0C0C3D0001FA743BF09001FB74A3F090EE
:0C0C490001FC7418F09001FD7454F09050
:0B0C550001FE74B1F09001FF74D7F0B5
:030C60000200038C
:0500030012113B80FE1C
:080C630085821485831585F0DC
:080C6B00167508007D007E00F3
:0D0C7300C3ED9480EE64809480505CED250C
:070C80000EFFEE350FF8A98D
:0C0C8700108F82888389F01211AEFF7874
:0A0C930000ED2511F9EE3512FAAB61
:0C0C9D001389828A838BF01211AEF97A61
:0C0CA90000E92FFFEA38F8E508FA33955F
:0C0CB500E0FBEA2FFFEB38F88808ED2583
:070CC10014FAEE3515FBAC3F
:0C0CC800168A828B838CF0EF1211780DDD
:060CD400BD009C0E80999A
:010CDA0022F7
:080CDB0085821D85831E85F052
:080CE3001F7508007D007E0072
:0C0CEB00C3ED9480EE64809480400122F0
:090CF700ED2517FFEE3518F8A9F0
:0C0D0000198F82888389F01211AEFF78F1
:0A0D0C0000ED251AF9EE351BFAABD5
:0C0D16001C89828A838BF01211AEF97ADE
:0C0D220000EFC399FFE89AF8E508FA33E7
:0E0D2E0095E0FBEA2FFAEB38FB23540130E08E
:030D3C000244FE70
:0C0D3F00FC3395E0FF74015CF5087401C2
:080D4B00B508057508FF8003DF
:030D530075080020
:090D5600ED251DFCEE351EFFA881
:0C0D5F001F8C828F8388F0EA1211780D3F
:040D6B00BD00010EB8
:030D6F00020CEB88
:080D720085822685832785F0A8
:050D7A0028E4F52BF553
:010D7F002C47
:090D800074FF252C4020E52B2511
:050D890026FFE52C35FA
:0A0D8E0027F8A9288F82888389F0D6
:080D9800E4121178052BE4B50B
:060DA0002BDE052C80DAB9
:050DA600E4F52BF52C23
:0A0DAB00C3E52B9480E52C94004072
:020DB500012219
:060DB700E4F529F52AF520
:040DBD002DF52EE5FD
:050DC1002B2520F8E5E0
:050DC6002C3521FAAB01
:010DCB002205
:0A0DCC00C3E52D9480E52E9400404D
:040DD60003020E699D
:060DDA00E52D252BFCE5D0
:060DE0002E352CFFEC256E
:070DE60026FCEF3527FFA9F1
:0C0DED00288C828F8389F01211AEFD8DDE
:0A0DF9003375340088828A838BF082
:0C0E03001211AEFDC000C002C003E52DBE
:060E0F002523FEE52E354F
:0A0E150024FAAB258E828A838BF04D
:0B0E1F001211AEFE8DF0A42533FAE5A1
:090E2A003435F0FBE5292AFAE554
:060E33002A3BFB8A2F8B15
:050E3900307531007569
:0A0E3E003200A82F7A007B007D002F
:0C0E48008C828F8389F0E81211788530CD
:030E5400298531BC
:050E57002A052DE4B5A1
:040E5C002D02052E30
:090E6000D003D002D000020DCC39
:0A0E69007480252BFAE4352CFBEA17
:080E73002526FAEB3527FBAC44
:0A0E7B0028AF298A828B838CF0EFE8
:070E8500121178052BE4B502
:040E8C002B02052C04
:030E9000020DABA5
:080E930085823885833985F062
:050E9B003A7D007E001D
:0D0EA000C3ED9480EE64809480502EED250B
:070EAD0038FFEE3539F8A90A
:070EB4003AED2535FAEE3599
:0A0EBB0036FBAC378A828B838CF083
:0E0EC5001211AEFA8F82888389F01211780D17
:060ED300BD00CA0E80C73D
:010ED90022F6
:0A0EDA00AA82AB83ACF0853B0E85C5
:030EE4003C0F853B
:030EE7003D108536
:030EEA003E118531
:030EED003F12852C
:0A0EF00040138A828B838CF0C0024D
:0E0EFA00C003C004120C63D004D003D002ADBC
:040F0800088A178BB1
:040F0C00188C19859F
:030F1000411A85FE
:030F1300421B85F9
:030F1600431C85F4
:060F19004482854583853A
:0B0F1F0046F0C002C003C004C0051271
:0C0F2A000CDBD005D004D003D002E50899
:030F3600B4010003
:0A0F3900E433FE4D60128544358557
:030F4300453685AB
:090F460046378A828B838CF0028D
:020F4F000E93FF
:010F5100227D
:0A0F5200AA82AB83ACF08547178537
:030F5C00481885AD
:030F5F00491985A8
:030F62004A1A85A3
:030F65004B1B859E
:0A0F68004C1C8A828B838CF0C002BF
:0E0F7200C003C004120CDBD004D003D002E593
:070F800008FD60188A0E8BCA
:040F87000F8C108536
:030F8B004D118580
:030F8E004E12857B
:090F91004F138A828B838CF0025D
:020F9A000C63E6
:010F9C002232
:080F9D0085825C85835D85F00F
:030FA5005E855016
:030FA80020855150
:030FAB002185524B
:030FAE0022855346
:030FB10023855441
:030FB4002485553C
:050FB70025855C828528
:060FBC005D83855EF0126A
:060FC2000D72E4F55FF57D
:040FC80060AF59A815
:030FCC005AA95BC4
:0A0FCF00C3E55F9480E560940040E4
:040FD900030210F906
:060FDD00E4F565F566E590
:050FE3005F255CFCE548
:050FE80060355DFAAB6D
:0C0FED005E8C828A838BF01211AEFC8FA8
:0D0FF90082888389F01211AEFA8CF0A4F505
:0510060063E4F564F550
:03100B0061F5622A
:0A100E00C3E5619480E562940040A0
:04101800030210C3FC
:0A101C00C007C000C001E561255FB8
:08102600FBE5623560FDEB25DE
:07102E005CFBED355DFDAE3A
:0C1035005E8B828D838EF01211AEFA7C6F
:0710410000E5612556FFE503
:05104800623557F8A914
:0C104D00588F82888389F01211AEFF8F4B
:051059006B756C0085C1
:0A105E006382856483C002C003C0F2
:0E10680004C005C006C001121191AF82A8831A
:0E107600D001D006D005D004D003D002EF2A5E
:0A108400FAE83CFCE5652AFAE5668F
:07108E003CFC8A678C6875C9
:061095006900756A00A964
:0C109B00677A007C007F008B828D838EC2
:0710A700F0E91211788568E1
:0310AE00658569EC
:0510B100660561E4B5D5
:0410B600610205626C
:0910BA00D001D000D00702100E95
:0A10C3007480255FFAE43560FBEA53
:0810CD00255CFAEB355DFBAC7C
:0C10D5005E8A828B838CF01211AEFDE568
:0B10E10065FE2DFD8A828B838CF012CF
:0610EC001178055FE4B578
:0410F2005F02056034
:0310F600020FCF17
:0810F9007480255CF517E43555
:041101005DF51885FB
:031105005E1985EB
:03110800561A85EF
:03110B00571B85EA
:03110E00581C85E5
:061111005C82855D838510
:061117005EF0120CDBE5A6
:08111D0008601A7480255CF5DE
:0511250035E4355DF525
:03112A0036855EA9
:05112D0037855C82859E
:061132005D83855EF00202
:021138000E9314
:01113A002292
:0A113B0090FFFE7401F0755000757E
:03114500510075E1
:041148005200755389
:03114C0080755457
:05114F0000755500755C
:03115400560075CD
:03115700570175C8
:04115A00580075596B
:03115E0080755A3F
:0A11610001755B0090050075F000B9
:0D116B00120F9D90FFFF7401F09000002214
:06003700E4787FF6D8FD1D
:080015007900E94400601B7A48
:05001D00009011CE78F7
:030022000075A0C6
:0A00250000E493F2A308B8000205FE
:08002F00A0D9F4DAF275A0FF7C
:0E11780020F71030F6118883A88220F507F6C4
:05118600A88375830041
:01118B002241
:03118C00F280F7F7
:02118F00F0224C
:0B119100E582856BF0A4C582C0F085EC
:0A119C006CF0A4D0F025F0C58385A7
:0811A6006BF0A42583F5832200
:08003D007800E84400600A7934
:030045000075A0A3
:0600480000E4F309D8FCFE
:08004E007800E84400600C7921
:0B00560000900000E4F0A3D8FCD9FAF1
:0300080075816C93
:0A000B001211CAE58260030200032F
:0E11AE0020F71430F6148883A88220F507E697
:0611BC00A88375830022E8
:0311C200E280F7D1
:0311C500E493228E
:0211C800E02223
:0411CA007582002208
:00000001FF
