:03000000020006F5
:09005F0075180675190002000372
:0300030002006890
:20006800751ADE751BAD751CBE751DEF751EFF751FFF7520FF7521FF90001A75F04012004F
:20008800AE90001E75F0401200AE90001A75F0401200AE90001A75F04012010A90001E75F9
:2000A800F04012010A2285822285832385F0247B007C00EB2522F8EC3523F9AA248882891D
:2000C800838AF0120155F5800518E4B518020519AE18E519CE25E0CE332400FF888289837F
:2000E8008AF0120155F87D008E828F83E8F0EDA3F00BBB00010CC3EB9404EC6480948040EA
:20010800B22285822585832685F0277B007C00EB2525FAEC3526FEAF278A828E838FF0121E
:200128000155F5800518E4B518020519E5182408F98A828E838FF0120155FAF70BBB000120
:0D0148000CC3EB9404EC6480948040C3224F
:06003500E4787FF6D8FD1F
:200013007900E94400601B7A00900175780075A000E493F2A308B8000205A0D9F4DAF2751E
:02003300A0FF2C
:20003B007800E84400600A790075A000E4F309D8FC7800E84400600C7900900000E4F0A3C5
:04005B00D8FCD9FAFA
:0D000600758127120171E58260030200037D
:1C01550020F71430F6148883A88220F507E6A88375830022E280F7E49322E022B9
:040171007582002271
:00000001FF
